{
  "_format": "hh-sol-artifact-1",
  "contractName": "Court",
  "sourceName": "contracts/court/Court.sol",
  "abi": [
    {
      "inputs": [],
      "stateMutability": "nonpayable",
      "type": "constructor"
    },
    {
      "anonymous": false,
      "inputs": [
        {
          "indexed": false,
          "internalType": "address",
          "name": "previousAdmin",
          "type": "address"
        },
        {
          "indexed": false,
          "internalType": "address",
          "name": "newAdmin",
          "type": "address"
        }
      ],
      "name": "AdminChanged",
      "type": "event"
    },
    {
      "anonymous": false,
      "inputs": [
        {
          "indexed": true,
          "internalType": "address",
          "name": "beacon",
          "type": "address"
        }
      ],
      "name": "BeaconUpgraded",
      "type": "event"
    },
    {
      "anonymous": false,
      "inputs": [
        {
          "indexed": false,
          "internalType": "uint256",
          "name": "courtId",
          "type": "uint256"
        },
        {
          "indexed": false,
          "internalType": "address",
          "name": "address1",
          "type": "address"
        },
        {
          "indexed": false,
          "internalType": "address",
          "name": "address2",
          "type": "address"
        },
        {
          "indexed": false,
          "internalType": "uint256",
          "name": "region",
          "type": "uint256"
        },
        {
          "indexed": false,
          "internalType": "uint256",
          "name": "method",
          "type": "uint256"
        },
        {
          "indexed": false,
          "internalType": "uint256",
          "name": "coinPrice",
          "type": "uint256"
        },
        {
          "indexed": false,
          "internalType": "uint256",
          "name": "duration",
          "type": "uint256"
        },
        {
          "indexed": false,
          "internalType": "string",
          "name": "ipfsData",
          "type": "string"
        },
        {
          "indexed": false,
          "internalType": "uint256",
          "name": "createdAt",
          "type": "uint256"
        }
      ],
      "name": "CourtCreated",
      "type": "event"
    },
    {
      "anonymous": false,
      "inputs": [
        {
          "indexed": false,
          "internalType": "uint256",
          "name": "courtId",
          "type": "uint256"
        },
        {
          "indexed": false,
          "internalType": "address",
          "name": "winner",
          "type": "address"
        },
        {
          "indexed": false,
          "internalType": "address",
          "name": "loser",
          "type": "address"
        }
      ],
      "name": "CourtSettled",
      "type": "event"
    },
    {
      "anonymous": false,
      "inputs": [
        {
          "indexed": false,
          "internalType": "uint256",
          "name": "courtId",
          "type": "uint256"
        }
      ],
      "name": "CourtUnSettled",
      "type": "event"
    },
    {
      "anonymous": false,
      "inputs": [
        {
          "indexed": false,
          "internalType": "address",
          "name": "token",
          "type": "address"
        }
      ],
      "name": "GovernanceTokenSet",
      "type": "event"
    },
    {
      "anonymous": false,
      "inputs": [
        {
          "indexed": false,
          "internalType": "uint256",
          "name": "courtId",
          "type": "uint256"
        },
        {
          "indexed": false,
          "internalType": "uint8",
          "name": "vote",
          "type": "uint8"
        },
        {
          "indexed": false,
          "internalType": "address",
          "name": "guardian",
          "type": "address"
        }
      ],
      "name": "GuardianVoted",
      "type": "event"
    },
    {
      "anonymous": false,
      "inputs": [
        {
          "indexed": false,
          "internalType": "uint8",
          "name": "version",
          "type": "uint8"
        }
      ],
      "name": "Initialized",
      "type": "event"
    },
    {
      "anonymous": false,
      "inputs": [
        {
          "indexed": false,
          "internalType": "uint256",
          "name": "courtId",
          "type": "uint256"
        },
        {
          "indexed": false,
          "internalType": "uint8",
          "name": "vote",
          "type": "uint8"
        },
        {
          "indexed": false,
          "internalType": "address",
          "name": "insider",
          "type": "address"
        }
      ],
      "name": "InsiderVoted",
      "type": "event"
    },
    {
      "anonymous": false,
      "inputs": [
        {
          "indexed": false,
          "internalType": "uint256",
          "name": "courtId",
          "type": "uint256"
        },
        {
          "indexed": false,
          "internalType": "uint256",
          "name": "stakeAmount",
          "type": "uint256"
        },
        {
          "indexed": false,
          "internalType": "address",
          "name": "guardian",
          "type": "address"
        }
      ],
      "name": "Staked",
      "type": "event"
    },
    {
      "anonymous": false,
      "inputs": [
        {
          "indexed": true,
          "internalType": "address",
          "name": "implementation",
          "type": "address"
        }
      ],
      "name": "Upgraded",
      "type": "event"
    },
    {
      "inputs": [],
      "name": "accessRestriction",
      "outputs": [
        {
          "internalType": "contract IAccessRestriction",
          "name": "",
          "type": "address"
        }
      ],
      "stateMutability": "view",
      "type": "function"
    },
    {
      "inputs": [],
      "name": "courtId",
      "outputs": [
        {
          "internalType": "uint256",
          "name": "_value",
          "type": "uint256"
        }
      ],
      "stateMutability": "view",
      "type": "function"
    },
    {
      "inputs": [
        {
          "internalType": "uint256",
          "name": "",
          "type": "uint256"
        }
      ],
      "name": "courts",
      "outputs": [
        {
          "internalType": "address",
          "name": "address1",
          "type": "address"
        },
        {
          "internalType": "address",
          "name": "address2",
          "type": "address"
        },
        {
          "internalType": "uint256",
          "name": "region",
          "type": "uint256"
        },
        {
          "internalType": "uint256",
          "name": "method",
          "type": "uint256"
        },
        {
          "internalType": "uint256",
          "name": "coinPrice",
          "type": "uint256"
        },
        {
          "internalType": "uint256",
          "name": "address1VoteCount",
          "type": "uint256"
        },
        {
          "internalType": "uint256",
          "name": "address2VoteCount",
          "type": "uint256"
        },
        {
          "internalType": "uint256",
          "name": "duration",
          "type": "uint256"
        },
        {
          "internalType": "uint256",
          "name": "createdAt",
          "type": "uint256"
        },
        {
          "internalType": "uint8",
          "name": "status",
          "type": "uint8"
        },
        {
          "internalType": "string",
          "name": "ipfsData",
          "type": "string"
        }
      ],
      "stateMutability": "view",
      "type": "function"
    },
    {
      "inputs": [
        {
          "internalType": "address",
          "name": "_address1",
          "type": "address"
        },
        {
          "internalType": "address",
          "name": "_address2",
          "type": "address"
        },
        {
          "internalType": "uint256",
          "name": "_region",
          "type": "uint256"
        },
        {
          "internalType": "uint256",
          "name": "_method",
          "type": "uint256"
        },
        {
          "internalType": "uint256",
          "name": "_coinPrice",
          "type": "uint256"
        },
        {
          "internalType": "uint256",
          "name": "_duration",
          "type": "uint256"
        },
        {
          "internalType": "string",
          "name": "_ipfsData",
          "type": "string"
        }
      ],
      "name": "createCourt",
      "outputs": [],
      "stateMutability": "nonpayable",
      "type": "function"
    },
    {
      "inputs": [],
      "name": "governanceToken",
      "outputs": [
        {
          "internalType": "address",
          "name": "",
          "type": "address"
        }
      ],
      "stateMutability": "view",
      "type": "function"
    },
    {
      "inputs": [
        {
          "internalType": "address",
          "name": "_accessRestrictionAddress",
          "type": "address"
        }
      ],
      "name": "initialize",
      "outputs": [],
      "stateMutability": "nonpayable",
      "type": "function"
    },
    {
      "inputs": [],
      "name": "insiderContract",
      "outputs": [
        {
          "internalType": "contract IInsider",
          "name": "",
          "type": "address"
        }
      ],
      "stateMutability": "view",
      "type": "function"
    },
    {
      "inputs": [],
      "name": "isCourt",
      "outputs": [
        {
          "internalType": "bool",
          "name": "",
          "type": "bool"
        }
      ],
      "stateMutability": "view",
      "type": "function"
    },
    {
      "inputs": [],
      "name": "proxiableUUID",
      "outputs": [
        {
          "internalType": "bytes32",
          "name": "",
          "type": "bytes32"
        }
      ],
      "stateMutability": "view",
      "type": "function"
    },
    {
      "inputs": [
        {
          "internalType": "address",
          "name": "_token",
          "type": "address"
        }
      ],
      "name": "setGovernanceToken",
      "outputs": [],
      "stateMutability": "nonpayable",
      "type": "function"
    },
    {
      "inputs": [
        {
          "internalType": "address",
          "name": "_address",
          "type": "address"
        }
      ],
      "name": "setInsiderContract",
      "outputs": [],
      "stateMutability": "nonpayable",
      "type": "function"
    },
    {
      "inputs": [
        {
          "internalType": "address",
          "name": "_address",
          "type": "address"
        }
      ],
      "name": "setSoulboundContract",
      "outputs": [],
      "stateMutability": "nonpayable",
      "type": "function"
    },
    {
      "inputs": [
        {
          "internalType": "uint256",
          "name": "_courtId",
          "type": "uint256"
        }
      ],
      "name": "settleCourt",
      "outputs": [],
      "stateMutability": "nonpayable",
      "type": "function"
    },
    {
      "inputs": [],
      "name": "soulboundContract",
      "outputs": [
        {
          "internalType": "contract ISoulbound",
          "name": "",
          "type": "address"
        }
      ],
      "stateMutability": "view",
      "type": "function"
    },
    {
      "inputs": [
        {
          "internalType": "uint256",
          "name": "_courtId",
          "type": "uint256"
        },
        {
          "internalType": "uint256",
          "name": "_stakeAmount",
          "type": "uint256"
        }
      ],
      "name": "stake",
      "outputs": [],
      "stateMutability": "nonpayable",
      "type": "function"
    },
    {
      "inputs": [
        {
          "internalType": "uint256",
          "name": "",
          "type": "uint256"
        },
        {
          "internalType": "address",
          "name": "",
          "type": "address"
        }
      ],
      "name": "stakedAmount",
      "outputs": [
        {
          "internalType": "uint256",
          "name": "",
          "type": "uint256"
        }
      ],
      "stateMutability": "view",
      "type": "function"
    },
    {
      "inputs": [
        {
          "internalType": "address",
          "name": "newImplementation",
          "type": "address"
        }
      ],
      "name": "upgradeTo",
      "outputs": [],
      "stateMutability": "nonpayable",
      "type": "function"
    },
    {
      "inputs": [
        {
          "internalType": "address",
          "name": "newImplementation",
          "type": "address"
        },
        {
          "internalType": "bytes",
          "name": "data",
          "type": "bytes"
        }
      ],
      "name": "upgradeToAndCall",
      "outputs": [],
      "stateMutability": "payable",
      "type": "function"
    },
    {
      "inputs": [
        {
          "internalType": "uint256",
          "name": "_courtId",
          "type": "uint256"
        },
        {
          "internalType": "uint8",
          "name": "_vote",
          "type": "uint8"
        }
      ],
      "name": "voteGuardian",
      "outputs": [],
      "stateMutability": "nonpayable",
      "type": "function"
    },
    {
      "inputs": [
        {
          "internalType": "uint256",
          "name": "_courtId",
          "type": "uint256"
        },
        {
          "internalType": "uint8",
          "name": "_vote",
          "type": "uint8"
        }
      ],
      "name": "voteInsider",
      "outputs": [],
      "stateMutability": "nonpayable",
      "type": "function"
    },
    {
      "inputs": [
        {
          "internalType": "uint256",
          "name": "",
          "type": "uint256"
        },
        {
          "internalType": "uint256",
          "name": "",
          "type": "uint256"
        }
      ],
      "name": "voterListPerCourt",
      "outputs": [
        {
          "internalType": "address",
          "name": "",
          "type": "address"
        }
      ],
      "stateMutability": "view",
      "type": "function"
    },
    {
      "inputs": [
        {
          "internalType": "address",
          "name": "",
          "type": "address"
        }
      ],
      "name": "voterScore",
      "outputs": [
        {
          "internalType": "int256",
          "name": "",
          "type": "int256"
        }
      ],
      "stateMutability": "view",
      "type": "function"
    },
    {
      "inputs": [
        {
          "internalType": "uint256",
          "name": "",
          "type": "uint256"
        },
        {
          "internalType": "address",
          "name": "",
          "type": "address"
        }
      ],
      "name": "voters",
      "outputs": [
        {
          "internalType": "uint8",
          "name": "",
          "type": "uint8"
        }
      ],
      "stateMutability": "view",
      "type": "function"
    }
  ],
  "bytecode": "0x60a06040523060601b6080523480156200001857600080fd5b506200002362000029565b620000eb565b600054610100900460ff1615620000965760405162461bcd60e51b815260206004820152602760248201527f496e697469616c697a61626c653a20636f6e747261637420697320696e697469604482015266616c697a696e6760c81b606482015260840160405180910390fd5b60005460ff9081161015620000e9576000805460ff191660ff9081179091556040519081527f7f26b83ff96e1f2b6a682f133852f6798a09c465da95921460cefb38474024989060200160405180910390a15b565b60805160601c6126ba6200012660003960008181610ebd01528181610efd01528181610f9d01528181610fdd015261107001526126ba6000f3fe6080604052600436106101405760003560e01c80637b0472f0116100b6578063c4d66de81161006f578063c4d66de8146103e8578063d6762c4a14610408578063d6fa31cd14610428578063f5dee0f714610448578063f857017014610468578063f96dae0a1461048857600080fd5b80637b0472f0146102d65780639e319063146102f6578063a91b096114610343578063b85502a014610370578063bb149184146103a8578063c0e97824146103c857600080fd5b80634b7829d9116101085780634b7829d91461021f5780634f1ef2861461023f57806350b5dcbe1461025257806352d1902d1461027c57806375c38b7e1461029f578063774ea783146102bf57600080fd5b806317c7c9ef146101455780631f5a0dd214610167578063314b617d146101a75780633659cfe6146101c757806342defa2b146101e7575b600080fd5b34801561015157600080fd5b5061016561016036600461223b565b6104ad565b005b34801561017357600080fd5b506101876101823660046121d4565b610741565b60405161019e9b9a999897969594939291906122b9565b60405180910390f35b3480156101b357600080fd5b506101656101c23660046121d4565b610835565b3480156101d357600080fd5b506101656101e2366004612002565b610eb2565b3480156101f357600080fd5b50606c54610207906001600160a01b031681565b6040516001600160a01b03909116815260200161019e565b34801561022b57600080fd5b50606b54610207906001600160a01b031681565b61016561024d3660046120d7565b610f92565b34801561025e57600080fd5b50606a5461026c9060ff1681565b604051901515815260200161019e565b34801561028857600080fd5b50610291611063565b60405190815260200161019e565b3480156102ab57600080fd5b506101656102ba36600461223b565b611116565b3480156102cb57600080fd5b50606e546102919081565b3480156102e257600080fd5b506101656102f1366004612219565b61131c565b34801561030257600080fd5b506103316103113660046121ed565b606760209081526000928352604080842090915290825290205460ff1681565b60405160ff909116815260200161019e565b34801561034f57600080fd5b5061029161035e366004612002565b60696020526000908152604090205481565b34801561037c57600080fd5b5061029161038b3660046121ed565b606660209081526000928352604080842090915290825290205481565b3480156103b457600080fd5b506101656103c3366004612002565b6115ec565b3480156103d457600080fd5b506101656103e3366004612002565b61168e565b3480156103f457600080fd5b50610165610403366004612002565b611730565b34801561041457600080fd5b50606d54610207906001600160a01b031681565b34801561043457600080fd5b5061016561044336600461201d565b6118ed565b34801561045457600080fd5b50610207610463366004612219565b6119e4565b34801561047457600080fd5b50610165610483366004612002565b611a1c565b34801561049457600080fd5b50606a546102079061010090046001600160a01b031681565b816000811180156104c05750606e548111155b6104e55760405162461bcd60e51b81526004016104dc906123d8565b60405180910390fd5b600083815260676020908152604080832033845290915290205460ff16156105405760405162461bcd60e51b815260206004820152600e60248201526d30b63932b0b23c903b37ba32b21760911b60448201526064016104dc565b60028260ff16106105885760405162461bcd60e51b8152602060048201526012602482015271696e76616c696420766f74652076616c756560701b60448201526064016104dc565b60008381526065602052604090819020606b5460038201549251632ffd25d160e01b8152600481019390935233602484015290916001600160a01b0390911690632ffd25d19060440160206040518083038186803b1580156105e957600080fd5b505afa1580156105fd573d6000803e3d6000fd5b505050506040513d601f19601f820116820180604052508101906106219190612199565b61065f5760405162461bcd60e51b815260206004820152600f60248201526e24b73b30b634b21024b739b4b232b960891b60448201526064016104dc565b60ff83161561068857600181600601600082825461067d9190612503565b9250508190556106a4565b600181600501600082825461069d9190612503565b9250508190555b50600084815260676020908152604080832033808552908352818420805460ff191660021790558784526068835281842080546001810182559085529383902090930180546001600160a01b03191684179055805187815260ff8716928101929092528101919091527fd37e457d9fa41294109ab2b83495eb59080586878a56aa25f49179b6eb8ad8e1906060015b60405180910390a150505050565b606560205260009081526040902080546001820154600283015460038401546004850154600586015460068701546007880154600889015460098a0154600a8b0180546001600160a01b039b8c169c9a909b169a989997989697959694959394929360ff909216926107b2906125a5565b80601f01602080910402602001604051908101604052809291908181526020018280546107de906125a5565b801561082b5780601f106108005761010080835404028352916020019161082b565b820191906000526020600020905b81548152906001019060200180831161080e57829003601f168201915b505050505090508b565b806000811180156108485750606e548111155b6108645760405162461bcd60e51b81526004016104dc906123d8565b6000828152606560205260409020600781015460088201546108869190612503565b42116108c65760405162461bcd60e51b815260206004820152600f60248201526e10dbdd5c9d081b9bdd08195b991959608a1b60448201526064016104dc565b600981015460ff1660011461090d5760405162461bcd60e51b815260206004820152600d60248201526c18dbdd5c9d081cd95d1d1b1959609a1b60448201526064016104dc565b80600601548160050154141561096b5760098101805460ff191660021790556040517f55dd2e3c2d8582e0a0b735b41e0fbbfac0837ee903f0247bb9e79e09f4dc70279061095e9085815260200190565b60405180910390a1505050565b6040805180820182528481526000602080830191909152825180840190935285835260019083015260098301805460ff19166003179055600683015460058401549192911115610c2e57606c5483546040516348551df960e11b81526001600160a01b03928316926390aa3bf2926109eb928792909116906004016123ff565b600060405180830381600087803b158015610a0557600080fd5b505af1158015610a19573d6000803e3d6000fd5b5050606c5460018601546040516348551df960e11b81526001600160a01b0392831694506390aa3bf29350610a5492869216906004016123ff565b600060405180830381600087803b158015610a6e57600080fd5b505af1158015610a82573d6000803e3d6000fd5b5050505060005b600086815260686020526040902054811015610bd757600086815260676020908152604080832060689092528220805491929184908110610acc57610acc612611565b60009182526020808320909101546001600160a01b0316835282019290925260400190205460ff16610b6157600160696000606860008a81526020019081526020016000208481548110610b2257610b22612611565b60009182526020808320909101546001600160a01b0316835282019290925260400181208054909190610b569084906124c2565b90915550610bc59050565b600160696000606860008a81526020019081526020016000208481548110610b8b57610b8b612611565b60009182526020808320909101546001600160a01b0316835282019290925260400181208054909190610bbf90849061253a565b90915550505b80610bcf816125e0565b915050610a89565b5082546001840154604080518881526001600160a01b0393841660208201529290911682820152517f76539428a8df9de2d51f9cb160222cd425c9b392c5623b2da92a7cdd9f4d33659181900360600190a1610eaa565b606c5460018401546040516348551df960e11b81526001600160a01b03928316926390aa3bf292610c67928792909116906004016123ff565b600060405180830381600087803b158015610c8157600080fd5b505af1158015610c95573d6000803e3d6000fd5b5050606c5485546040516348551df960e11b81526001600160a01b0392831694506390aa3bf29350610ccd92869216906004016123ff565b600060405180830381600087803b158015610ce757600080fd5b505af1158015610cfb573d6000803e3d6000fd5b5050505060005b600086815260686020526040902054811015610e5457600086815260676020908152604080832060689092528220805491929184908110610d4557610d45612611565b60009182526020808320909101546001600160a01b0316835282019290925260400190205460ff1660011415610dde57600160696000606860008a81526020019081526020016000208481548110610d9f57610d9f612611565b60009182526020808320909101546001600160a01b0316835282019290925260400181208054909190610dd39084906124c2565b90915550610e429050565b600160696000606860008a81526020019081526020016000208481548110610e0857610e08612611565b60009182526020808320909101546001600160a01b0316835282019290925260400181208054909190610e3c90849061253a565b90915550505b80610e4c816125e0565b915050610d02565b5060018301548354604080518881526001600160a01b03938416602082015292909116908201527f76539428a8df9de2d51f9cb160222cd425c9b392c5623b2da92a7cdd9f4d3365906060015b60405180910390a15b50505b505050565b306001600160a01b037f0000000000000000000000000000000000000000000000000000000000000000161415610efb5760405162461bcd60e51b81526004016104dc90612340565b7f00000000000000000000000000000000000000000000000000000000000000006001600160a01b0316610f4460008051602061263e833981519152546001600160a01b031690565b6001600160a01b031614610f6a5760405162461bcd60e51b81526004016104dc9061238c565b610f7381611ad4565b60408051600080825260208201909252610f8f91839190611b2b565b50565b306001600160a01b037f0000000000000000000000000000000000000000000000000000000000000000161415610fdb5760405162461bcd60e51b81526004016104dc90612340565b7f00000000000000000000000000000000000000000000000000000000000000006001600160a01b031661102460008051602061263e833981519152546001600160a01b031690565b6001600160a01b03161461104a5760405162461bcd60e51b81526004016104dc9061238c565b61105382611ad4565b61105f82826001611b2b565b5050565b6000306001600160a01b037f000000000000000000000000000000000000000000000000000000000000000016146111035760405162461bcd60e51b815260206004820152603860248201527f555550535570677261646561626c653a206d757374206e6f742062652063616c60448201527f6c6564207468726f7567682064656c656761746563616c6c000000000000000060648201526084016104dc565b5060008051602061263e83398151915290565b816000811180156111295750606e548111155b6111455760405162461bcd60e51b81526004016104dc906123d8565b60028260ff161061118d5760405162461bcd60e51b8152602060048201526012602482015271696e76616c696420766f74652076616c756560701b60448201526064016104dc565b6000838152606560209081526040808320606783528184203385529092529091205460ff16156111f05760405162461bcd60e51b815260206004820152600e60248201526d30b63932b0b23c903b37ba32b21760911b60448201526064016104dc565b60008481526066602090815260408083203384529091529020546112435760405162461bcd60e51b815260206004820152600a6024820152691b9bdd081cdd185ad95960b21b60448201526064016104dc565b60ff83161561126c5760018160060160008282546112619190612503565b925050819055611288565b60018160050160008282546112819190612503565b9250508190555b50600084815260676020908152604080832033808552908352818420805460ff19166001908117909155888552606884528285208054918201815585529383902090930180546001600160a01b03191684179055805187815260ff8716928101929092528101919091527f9fcee68fab99902b6cfd87238ddd45f6846cb2077e0fd3bb9bd9597a64d97a1390606001610733565b8160008111801561132f5750606e548111155b61134b5760405162461bcd60e51b81526004016104dc906123d8565b60008381526065602052604090206007810154600882015461136d9190612503565b42106113a95760405162461bcd60e51b815260206004820152600b60248201526a10dbdd5c9d08195b99195960aa1b60448201526064016104dc565b60048101546113b990600a61251b565b8310156114085760405162461bcd60e51b815260206004820152601860248201527f496e73756666696369656e74207374616b65416d6f756e74000000000000000060448201526064016104dc565b6000848152606660209081526040808320338452909152902054156114605760405162461bcd60e51b815260206004820152600e60248201526d185b1c9958591e481cdd185ad95960921b60448201526064016104dc565b600084815260676020908152604080832033845290915290205460ff16156114ba5760405162461bcd60e51b815260206004820152600d60248201526c185b1c9958591e481d9bdd1959609a1b60448201526064016104dc565b606a546040516323b872dd60e01b81523360048201523060248201526044810185905260009161010090046001600160a01b0316906323b872dd90606401602060405180830381600087803b15801561151257600080fd5b505af1158015611526573d6000803e3d6000fd5b505050506040513d601f19601f8201168201806040525081019061154a9190612199565b9050806115925760405162461bcd60e51b81526020600482015260166024820152752ab739bab1b1b2b9b9b33ab6103a3930b739b332b91760511b60448201526064016104dc565b6000858152606660209081526040808320338085529083529281902087905580518881529182018790528101919091527f1b52f0db6b5f755caa8f232eebe353a340637e6c55969d84b3ee0cee945aa43390606001610ea1565b6000819050806001600160a01b031663f7eca6d06040518163ffffffff1660e01b815260040160206040518083038186803b15801561162a57600080fd5b505afa15801561163e573d6000803e3d6000fd5b505050506040513d601f19601f820116820180604052508101906116629190612199565b61166b57600080fd5b606c80546001600160a01b0319166001600160a01b039290921691909117905550565b6000819050806001600160a01b031663a3419ba66040518163ffffffff1660e01b815260040160206040518083038186803b1580156116cc57600080fd5b505afa1580156116e0573d6000803e3d6000fd5b505050506040513d601f19601f820116820180604052508101906117049190612199565b61170d57600080fd5b606b80546001600160a01b0319166001600160a01b039290921691909117905550565b600054610100900460ff16158080156117505750600054600160ff909116105b8061176a5750303b15801561176a575060005460ff166001145b6117cd5760405162461bcd60e51b815260206004820152602e60248201527f496e697469616c697a61626c653a20636f6e747261637420697320616c72656160448201526d191e481a5b9a5d1a585b1a5e995960921b60648201526084016104dc565b6000805460ff1916600117905580156117f0576000805461ff0019166101001790555b6117f8611ca5565b6000829050806001600160a01b031663ba84fd696040518163ffffffff1660e01b815260040160206040518083038186803b15801561183657600080fd5b505afa15801561184a573d6000803e3d6000fd5b505050506040513d601f19601f8201168201806040525081019061186e9190612199565b61187757600080fd5b606d80546001600160a01b0319166001600160a01b0392909216919091179055606a805460ff19166001179055801561105f576000805461ff0019169055604051600181527f7f26b83ff96e1f2b6a682f133852f6798a09c465da95921460cefb38474024989060200160405180910390a15050565b6118fb606e80546001019055565b60006065600061190a606e5490565b8152602081019190915260400160002080546001600160a01b03808c166001600160a01b0319928316178355600183018054918c1691909216179055600281018890556003810187905560048101869055600781018590559050611972600a82018484611f4d565b5042600882015560098101805460ff191660011790557f89e6809fa31e882d7ced7f1ae7dcbd07821dcff3519fc7bca5eb79aebcaaef286119b2606e5490565b8a8a8a8a8a8a8a8a426040516119d19a99989796959493929190612447565b60405180910390a1505050505050505050565b60686020528160005260406000208181548110611a0057600080fd5b6000918252602090912001546001600160a01b03169150829050565b606d54604051632104fb0560e21b81523360048201526001600160a01b0390911690638413ec149060240160006040518083038186803b158015611a5f57600080fd5b505afa158015611a73573d6000803e3d6000fd5b5050606a8054610100600160a81b0319166101006001600160a01b038616908102919091179091556040519081527f3ba24b3c4ab2560aa8c371227cd2ce1851c3c62c25b749c681fa8bc6402c3c079250602001905060405180910390a150565b606d54604051632104fb0560e21b81523360048201526001600160a01b0390911690638413ec149060240160006040518083038186803b158015611b1757600080fd5b505afa158015610eaa573d6000803e3d6000fd5b7f4910fdfa16fed3260ed0e7147f7cc6da11a60208b5b9406d12a635614ffd91435460ff1615611b5e57610ead83611d12565b826001600160a01b03166352d1902d6040518163ffffffff1660e01b815260040160206040518083038186803b158015611b9757600080fd5b505afa925050508015611bc7575060408051601f3d908101601f19168201909252611bc4918101906121bb565b60015b611c2a5760405162461bcd60e51b815260206004820152602e60248201527f45524331393637557067726164653a206e657720696d706c656d656e7461746960448201526d6f6e206973206e6f74205555505360901b60648201526084016104dc565b60008051602061263e8339815191528114611c995760405162461bcd60e51b815260206004820152602960248201527f45524331393637557067726164653a20756e737570706f727465642070726f786044820152681a58589b195555525160ba1b60648201526084016104dc565b50610ead838383611dae565b600054610100900460ff16611d105760405162461bcd60e51b815260206004820152602b60248201527f496e697469616c697a61626c653a20636f6e7472616374206973206e6f74206960448201526a6e697469616c697a696e6760a81b60648201526084016104dc565b565b6001600160a01b0381163b611d7f5760405162461bcd60e51b815260206004820152602d60248201527f455243313936373a206e657720696d706c656d656e746174696f6e206973206e60448201526c1bdd08184818dbdb9d1c9858dd609a1b60648201526084016104dc565b60008051602061263e83398151915280546001600160a01b0319166001600160a01b0392909216919091179055565b611db783611dd9565b600082511180611dc45750805b15610ead57611dd38383611e19565b50505050565b611de281611d12565b6040516001600160a01b038216907fbc7cd75a20ee27fd9adebab32041f755214dbc6bffa90cc0225b39da2e5c2d3b90600090a250565b60606001600160a01b0383163b611e815760405162461bcd60e51b815260206004820152602660248201527f416464726573733a2064656c65676174652063616c6c20746f206e6f6e2d636f6044820152651b9d1c9858dd60d21b60648201526084016104dc565b600080846001600160a01b031684604051611e9c919061229d565b600060405180830381855af49150503d8060008114611ed7576040519150601f19603f3d011682016040523d82523d6000602084013e611edc565b606091505b5091509150611f04828260405180606001604052806027815260200161265e60279139611f0d565b95945050505050565b60608315611f1c575081611f46565b825115611f2c5782518084602001fd5b8160405162461bcd60e51b81526004016104dc919061232d565b9392505050565b828054611f59906125a5565b90600052602060002090601f016020900481019282611f7b5760008555611fc1565b82601f10611f945782800160ff19823516178555611fc1565b82800160010185558215611fc1579182015b82811115611fc1578235825591602001919060010190611fa6565b50611fcd929150611fd1565b5090565b5b80821115611fcd5760008155600101611fd2565b80356001600160a01b0381168114611ffd57600080fd5b919050565b60006020828403121561201457600080fd5b611f4682611fe6565b60008060008060008060008060e0898b03121561203957600080fd5b61204289611fe6565b975061205060208a01611fe6565b965060408901359550606089013594506080890135935060a0890135925060c089013567ffffffffffffffff8082111561208957600080fd5b818b0191508b601f83011261209d57600080fd5b8135818111156120ac57600080fd5b8c60208285010111156120be57600080fd5b6020830194508093505050509295985092959890939650565b600080604083850312156120ea57600080fd5b6120f383611fe6565b9150602083013567ffffffffffffffff8082111561211057600080fd5b818501915085601f83011261212457600080fd5b81358181111561213657612136612627565b604051601f8201601f19908116603f0116810190838211818310171561215e5761215e612627565b8160405282815288602084870101111561217757600080fd5b8260208601602083013760006020848301015280955050505050509250929050565b6000602082840312156121ab57600080fd5b81518015158114611f4657600080fd5b6000602082840312156121cd57600080fd5b5051919050565b6000602082840312156121e657600080fd5b5035919050565b6000806040838503121561220057600080fd5b8235915061221060208401611fe6565b90509250929050565b6000806040838503121561222c57600080fd5b50508035926020909101359150565b6000806040838503121561224e57600080fd5b82359150602083013560ff8116811461226657600080fd5b809150509250929050565b60008151808452612289816020860160208601612579565b601f01601f19169290920160200192915050565b600082516122af818460208701612579565b9190910192915050565b600061016060018060a01b03808f168452808e166020850152508b60408401528a60608401528960808401528860a08401528760c08401528660e08401528561010084015260ff85166101208401528061014084015261231b81840185612271565b9e9d5050505050505050505050505050565b602081526000611f466020830184612271565b6020808252602c908201527f46756e6374696f6e206d7573742062652063616c6c6564207468726f7567682060408201526b19195b1959d85d1958d85b1b60a21b606082015260800190565b6020808252602c908201527f46756e6374696f6e206d7573742062652063616c6c6564207468726f7567682060408201526b6163746976652070726f787960a01b606082015260800190565b6020808252600d908201526c125b9d985b1a590818dbdd5c9d609a1b604082015260600190565b82518152602083015160608201906002811061242b57634e487b7160e01b600052602160045260246000fd5b60208301526001600160a01b0392909216604090910152919050565b8a81526001600160a01b038a8116602083015289166040820152606081018890526080810187905260a0810186905260c0810185905261012060e0820181905281018390526000610140848682850137600083860182015261010083019390935250601f909201601f19169091010198975050505050505050565b600080821280156001600160ff1b03849003851316156124e4576124e46125fb565b600160ff1b83900384128116156124fd576124fd6125fb565b50500190565b60008219821115612516576125166125fb565b500190565b6000816000190483118215151615612535576125356125fb565b500290565b60008083128015600160ff1b850184121615612558576125586125fb565b6001600160ff1b0384018313811615612573576125736125fb565b50500390565b60005b8381101561259457818101518382015260200161257c565b83811115611dd35750506000910152565b600181811c908216806125b957607f821691505b602082108114156125da57634e487b7160e01b600052602260045260246000fd5b50919050565b60006000198214156125f4576125f46125fb565b5060010190565b634e487b7160e01b600052601160045260246000fd5b634e487b7160e01b600052603260045260246000fd5b634e487b7160e01b600052604160045260246000fdfe360894a13ba1a3210667c828492db98dca3e2076cc3735a920a3ca505d382bbc416464726573733a206c6f772d6c6576656c2064656c65676174652063616c6c206661696c6564a2646970667358221220d61fde7bd8b4da9703000a1a9e6fe23504eb62f61fbfaaaee67d518533b64f6964736f6c63430008060033",
  "linkReferences": {},
  "deployedLinkReferences": {}
}