{
  "_format": "hh-sol-artifact-1",
  "contractName": "Insider",
  "sourceName": "contracts/insider/Insider.sol",
  "abi": [
    {
      "inputs": [],
      "stateMutability": "nonpayable",
      "type": "constructor"
    },
    {
      "anonymous": false,
      "inputs": [
        {
          "indexed": false,
          "internalType": "address",
          "name": "previousAdmin",
          "type": "address"
        },
        {
          "indexed": false,
          "internalType": "address",
          "name": "newAdmin",
          "type": "address"
        }
      ],
      "name": "AdminChanged",
      "type": "event"
    },
    {
      "anonymous": false,
      "inputs": [
        {
          "indexed": true,
          "internalType": "address",
          "name": "beacon",
          "type": "address"
        }
      ],
      "name": "BeaconUpgraded",
      "type": "event"
    },
    {
      "anonymous": false,
      "inputs": [
        {
          "indexed": false,
          "internalType": "uint8",
          "name": "version",
          "type": "uint8"
        }
      ],
      "name": "Initialized",
      "type": "event"
    },
    {
      "anonymous": false,
      "inputs": [
        {
          "indexed": false,
          "internalType": "uint256",
          "name": "roomId",
          "type": "uint256"
        }
      ],
      "name": "InsiderRejected",
      "type": "event"
    },
    {
      "anonymous": false,
      "inputs": [
        {
          "indexed": false,
          "internalType": "uint256",
          "name": "roomId",
          "type": "uint256"
        },
        {
          "indexed": false,
          "internalType": "address",
          "name": "receiver",
          "type": "address"
        },
        {
          "indexed": false,
          "internalType": "uint256",
          "name": "insiderScore",
          "type": "uint256"
        }
      ],
      "name": "InsiderVerified",
      "type": "event"
    },
    {
      "anonymous": false,
      "inputs": [
        {
          "indexed": false,
          "internalType": "uint256",
          "name": "roomId",
          "type": "uint256"
        },
        {
          "indexed": false,
          "internalType": "string",
          "name": "ipfsHash",
          "type": "string"
        },
        {
          "indexed": false,
          "internalType": "address",
          "name": "receiver",
          "type": "address"
        }
      ],
      "name": "ReceiverHashUploaded",
      "type": "event"
    },
    {
      "anonymous": false,
      "inputs": [
        {
          "indexed": false,
          "internalType": "uint256",
          "name": "roomId",
          "type": "uint256"
        },
        {
          "indexed": false,
          "internalType": "string",
          "name": "ipfsHash",
          "type": "string"
        },
        {
          "indexed": false,
          "internalType": "address",
          "name": "receiver",
          "type": "address"
        }
      ],
      "name": "ReceiverTxVerified",
      "type": "event"
    },
    {
      "anonymous": false,
      "inputs": [
        {
          "indexed": false,
          "internalType": "uint256",
          "name": "roomId",
          "type": "uint256"
        },
        {
          "indexed": false,
          "internalType": "uint256",
          "name": "method",
          "type": "uint256"
        },
        {
          "indexed": false,
          "internalType": "address",
          "name": "insider",
          "type": "address"
        }
      ],
      "name": "RoomCreated",
      "type": "event"
    },
    {
      "anonymous": false,
      "inputs": [
        {
          "indexed": false,
          "internalType": "uint256",
          "name": "roomId",
          "type": "uint256"
        },
        {
          "indexed": false,
          "internalType": "address",
          "name": "firstSender",
          "type": "address"
        },
        {
          "indexed": false,
          "internalType": "address",
          "name": "firstReciever",
          "type": "address"
        },
        {
          "indexed": false,
          "internalType": "address",
          "name": "secondSender",
          "type": "address"
        },
        {
          "indexed": false,
          "internalType": "address",
          "name": "secondReciever",
          "type": "address"
        }
      ],
      "name": "RoomStarted",
      "type": "event"
    },
    {
      "anonymous": false,
      "inputs": [
        {
          "indexed": false,
          "internalType": "uint256",
          "name": "roomId",
          "type": "uint256"
        },
        {
          "indexed": false,
          "internalType": "string",
          "name": "ipfsHash",
          "type": "string"
        },
        {
          "indexed": false,
          "internalType": "address",
          "name": "sender",
          "type": "address"
        }
      ],
      "name": "SenderHashUploaded",
      "type": "event"
    },
    {
      "anonymous": false,
      "inputs": [
        {
          "indexed": false,
          "internalType": "uint256",
          "name": "roomId",
          "type": "uint256"
        },
        {
          "indexed": false,
          "internalType": "uint256",
          "name": "transferIndex",
          "type": "uint256"
        },
        {
          "indexed": false,
          "internalType": "bool",
          "name": "checked",
          "type": "bool"
        },
        {
          "indexed": false,
          "internalType": "address",
          "name": "insider",
          "type": "address"
        }
      ],
      "name": "TxCheckedByInsider",
      "type": "event"
    },
    {
      "anonymous": false,
      "inputs": [
        {
          "indexed": true,
          "internalType": "address",
          "name": "implementation",
          "type": "address"
        }
      ],
      "name": "Upgraded",
      "type": "event"
    },
    {
      "anonymous": false,
      "inputs": [
        {
          "indexed": false,
          "internalType": "uint256",
          "name": "roomId",
          "type": "uint256"
        },
        {
          "indexed": false,
          "internalType": "address",
          "name": "witness",
          "type": "address"
        },
        {
          "indexed": false,
          "internalType": "uint256",
          "name": "witnessLength",
          "type": "uint256"
        }
      ],
      "name": "WitnessJoined",
      "type": "event"
    },
    {
      "inputs": [],
      "name": "accessRestriction",
      "outputs": [
        {
          "internalType": "contract IAccessRestriction",
          "name": "",
          "type": "address"
        }
      ],
      "stateMutability": "view",
      "type": "function"
    },
    {
      "inputs": [
        {
          "internalType": "uint256",
          "name": "_method",
          "type": "uint256"
        },
        {
          "internalType": "address",
          "name": "_insider",
          "type": "address"
        }
      ],
      "name": "checkInsiderPermission",
      "outputs": [
        {
          "internalType": "bool",
          "name": "",
          "type": "bool"
        }
      ],
      "stateMutability": "view",
      "type": "function"
    },
    {
      "inputs": [
        {
          "internalType": "uint256",
          "name": "_roomId",
          "type": "uint256"
        },
        {
          "internalType": "uint256",
          "name": "_transferIndex",
          "type": "uint256"
        },
        {
          "internalType": "bool",
          "name": "_checked",
          "type": "bool"
        }
      ],
      "name": "checkTxByInsider",
      "outputs": [],
      "stateMutability": "nonpayable",
      "type": "function"
    },
    {
      "inputs": [
        {
          "internalType": "uint256",
          "name": "_method",
          "type": "uint256"
        }
      ],
      "name": "createRoom",
      "outputs": [],
      "stateMutability": "nonpayable",
      "type": "function"
    },
    {
      "inputs": [
        {
          "internalType": "uint256",
          "name": "_roomId",
          "type": "uint256"
        },
        {
          "internalType": "uint256",
          "name": "_transferId",
          "type": "uint256"
        }
      ],
      "name": "getRoomTransferData",
      "outputs": [
        {
          "components": [
            {
              "internalType": "address",
              "name": "sender",
              "type": "address"
            },
            {
              "internalType": "address",
              "name": "receiver",
              "type": "address"
            },
            {
              "internalType": "uint8",
              "name": "status",
              "type": "uint8"
            },
            {
              "internalType": "string",
              "name": "receiverAccountHash",
              "type": "string"
            },
            {
              "internalType": "string",
              "name": "senderTxHash",
              "type": "string"
            },
            {
              "internalType": "string",
              "name": "recieverAccountHashForInsider",
              "type": "string"
            },
            {
              "internalType": "bool",
              "name": "insiderAnswer",
              "type": "bool"
            }
          ],
          "internalType": "struct Insider.TransferData",
          "name": "transferData",
          "type": "tuple"
        }
      ],
      "stateMutability": "view",
      "type": "function"
    },
    {
      "inputs": [
        {
          "internalType": "uint256",
          "name": "_roomId",
          "type": "uint256"
        },
        {
          "internalType": "uint256",
          "name": "_index",
          "type": "uint256"
        }
      ],
      "name": "getRoomWitnesses",
      "outputs": [
        {
          "internalType": "address",
          "name": "",
          "type": "address"
        }
      ],
      "stateMutability": "view",
      "type": "function"
    },
    {
      "inputs": [
        {
          "internalType": "address",
          "name": "_accessRestrictionAddress",
          "type": "address"
        }
      ],
      "name": "initialize",
      "outputs": [],
      "stateMutability": "nonpayable",
      "type": "function"
    },
    {
      "inputs": [
        {
          "internalType": "address",
          "name": "",
          "type": "address"
        }
      ],
      "name": "insiders",
      "outputs": [
        {
          "internalType": "uint256",
          "name": "method",
          "type": "uint256"
        }
      ],
      "stateMutability": "view",
      "type": "function"
    },
    {
      "inputs": [],
      "name": "isInsider",
      "outputs": [
        {
          "internalType": "bool",
          "name": "",
          "type": "bool"
        }
      ],
      "stateMutability": "view",
      "type": "function"
    },
    {
      "inputs": [
        {
          "internalType": "uint256",
          "name": "_roomId",
          "type": "uint256"
        }
      ],
      "name": "joinWitness",
      "outputs": [],
      "stateMutability": "nonpayable",
      "type": "function"
    },
    {
      "inputs": [],
      "name": "proxiableUUID",
      "outputs": [
        {
          "internalType": "bytes32",
          "name": "",
          "type": "bytes32"
        }
      ],
      "stateMutability": "view",
      "type": "function"
    },
    {
      "inputs": [
        {
          "internalType": "uint256",
          "name": "_roomId",
          "type": "uint256"
        },
        {
          "internalType": "string",
          "name": "_ipfsHash",
          "type": "string"
        }
      ],
      "name": "receiverUploadHash",
      "outputs": [],
      "stateMutability": "nonpayable",
      "type": "function"
    },
    {
      "inputs": [
        {
          "internalType": "uint256",
          "name": "_roomId",
          "type": "uint256"
        },
        {
          "internalType": "string",
          "name": "_ipfsHash",
          "type": "string"
        }
      ],
      "name": "receiverVerifyTx",
      "outputs": [],
      "stateMutability": "nonpayable",
      "type": "function"
    },
    {
      "inputs": [],
      "name": "roomId",
      "outputs": [
        {
          "internalType": "uint256",
          "name": "_value",
          "type": "uint256"
        }
      ],
      "stateMutability": "view",
      "type": "function"
    },
    {
      "inputs": [
        {
          "internalType": "uint256",
          "name": "",
          "type": "uint256"
        }
      ],
      "name": "rooms",
      "outputs": [
        {
          "internalType": "uint8",
          "name": "status",
          "type": "uint8"
        },
        {
          "internalType": "uint256",
          "name": "method",
          "type": "uint256"
        },
        {
          "internalType": "address",
          "name": "insider",
          "type": "address"
        },
        {
          "internalType": "uint8",
          "name": "insiderScore",
          "type": "uint8"
        }
      ],
      "stateMutability": "view",
      "type": "function"
    },
    {
      "inputs": [
        {
          "internalType": "uint256",
          "name": "_roomId",
          "type": "uint256"
        },
        {
          "internalType": "string",
          "name": "_ipfsHash",
          "type": "string"
        }
      ],
      "name": "senderUploadHash",
      "outputs": [],
      "stateMutability": "nonpayable",
      "type": "function"
    },
    {
      "inputs": [
        {
          "internalType": "address",
          "name": "newImplementation",
          "type": "address"
        }
      ],
      "name": "upgradeTo",
      "outputs": [],
      "stateMutability": "nonpayable",
      "type": "function"
    },
    {
      "inputs": [
        {
          "internalType": "address",
          "name": "newImplementation",
          "type": "address"
        },
        {
          "internalType": "bytes",
          "name": "data",
          "type": "bytes"
        }
      ],
      "name": "upgradeToAndCall",
      "outputs": [],
      "stateMutability": "payable",
      "type": "function"
    },
    {
      "inputs": [
        {
          "internalType": "uint256",
          "name": "_roomId",
          "type": "uint256"
        },
        {
          "internalType": "bool",
          "name": "_isVerified",
          "type": "bool"
        }
      ],
      "name": "verifyInsiderByReceiver",
      "outputs": [],
      "stateMutability": "nonpayable",
      "type": "function"
    }
  ],
  "bytecode": "0x60a06040523060601b60805234801561001757600080fd5b50610020610025565b6100e5565b600054610100900460ff16156100915760405162461bcd60e51b815260206004820152602760248201527f496e697469616c697a61626c653a20636f6e747261637420697320696e697469604482015266616c697a696e6760c81b606482015260840160405180910390fd5b60005460ff90811610156100e3576000805460ff191660ff9081179091556040519081527f7f26b83ff96e1f2b6a682f133852f6798a09c465da95921460cefb38474024989060200160405180910390a15b565b60805160601c61224a62000120600039600081816109df01528181610a1f01528181610abf01528181610aff0152610b8e015261224a6000f3fe6080604052600436106101145760003560e01c80637653260e116100a0578063bbba825711610064578063bbba82571461037b578063c4d66de81461039b578063d6762c4a146103bb578063e4639cd7146103e0578063f954d0d91461040057600080fd5b80637653260e146102af578063a18918ad146102dc578063a3419ba6146102fc578063a741d40614610316578063b9d92f2f1461034357600080fd5b80633659cfe6116100e75780633659cfe6146102195780634f1ef2861461023957806352d1902d1461024c57806358d157b51461026f578063590bb4ba1461028f57600080fd5b806302239f2b146101195780631bae0ac81461013b5780632b569115146101c95780632ffd25d1146101e9575b600080fd5b34801561012557600080fd5b50610139610134366004611da8565b610417565b005b34801561014757600080fd5b5061018e610156366004611da8565b606660205260009081526040902080546001820154600283015460059093015460ff9283169391926001600160a01b03909216911684565b6040805160ff958616815260208101949094526001600160a01b03909216918301919091529190911660608201526080015b60405180910390f35b3480156101d557600080fd5b506101396101e4366004611e1d565b6107d8565b3480156101f557600080fd5b50610209610204366004611dc1565b610915565b60405190151581526020016101c0565b34801561022557600080fd5b50610139610234366004611cf5565b6109d4565b610139610247366004611d10565b610ab4565b34801561025857600080fd5b50610261610b81565b6040519081526020016101c0565b34801561027b57600080fd5b5061013961028a366004611e1d565b610c34565b34801561029b57600080fd5b506101396102aa366004611e70565b610d5e565b3480156102bb57600080fd5b506102cf6102ca366004611e4e565b610ed1565b6040516101c09190611fc3565b3480156102e857600080fd5b506101396102f7366004611ded565b611134565b34801561030857600080fd5b506067546102099060ff1681565b34801561032257600080fd5b50610261610331366004611cf5565b60656020526000908152604090205481565b34801561034f57600080fd5b5061036361035e366004611e4e565b611398565b6040516001600160a01b0390911681526020016101c0565b34801561038757600080fd5b50610139610396366004611da8565b6113d7565b3480156103a757600080fd5b506101396103b6366004611cf5565b61146e565b3480156103c757600080fd5b506067546103639061010090046001600160a01b031681565b3480156103ec57600080fd5b506101396103fb366004611e1d565b611626565b34801561040c57600080fd5b506068546102619081565b6000818152606660205260409020805460ff16156104505760405162461bcd60e51b815260040161044790611f50565b60405180910390fd5b6003810180546001810182556000828152602090200180546001600160a01b0319163390811790915590546040517f70bed72c2a3a19513376d259870d108b9ab8b50933f62a3f60246305c5125662926104c3928683526001600160a01b03919091166020830152604082015260600190565b60405180910390a16003810154600414156107d45760028101546003820180546000926004926001600160a01b0390911691849061050357610503612193565b6000918252602090912001546003850180546001600160a01b0390921691600190811061053257610532612193565b6000918252602090912001546003860180546001600160a01b0390921691600290811061056157610561612193565b9060005260206000200160009054906101000a90046001600160a01b03168660030160038154811061059557610595612193565b60009182526020918290200154604080516001600160a01b03978816818501529587168682015293861660608601529185166080850152931660a0808401919091528151808403909101815260c0909201905280519101206105f7919061215b565b6000808052600484016020526040902060038401805492935090918390811061062257610622612193565b60009182526020909120015481546001600160a01b0319166001600160a01b0390911617815560038301600461065984600161209c565b610663919061215b565b8154811061067357610673612193565b6000918252602080832090910154600193840180546001600160a01b0319166001600160a01b039092169190911790559181526004808501909252604090209060038401906106c384600261209c565b6106cd919061215b565b815481106106dd576106dd612193565b60009182526020909120015481546001600160a01b0319166001600160a01b0390911617815560038084019060049061071790859061209c565b610721919061215b565b8154811061073157610731612193565b600091825260208083209190910154600184810180546001600160a01b0319166001600160a01b03938416178155875460ff19168217885584805260048801845260409485902080549201548654915486518b815293851695840195909552831682860152821660608201529116608082015290517f5691bb16b96df1b8f6063ded3559c6838e1c8331f60585933ce29977a6217aee9160a0908290030190a150505b5050565b6000828152606660205260409020805460ff1660011461080a5760405162461bcd60e51b815260040161044790611f50565b6000805b600281101561090e576000818152600484016020526040902060018101549092506001600160a01b03163314156108fc576001820154600160a01b900460ff16156108905760405162461bcd60e51b81526020600482015260126024820152711a185cda08185b1c9958591e48195e1a5cdd60721b6044820152606401610447565b83516108a59060028401906020870190611bca565b5060018201805460ff60a01b1916600160a01b1790556040517fb895fda6853de95d70c1e312b5dc59d26d279795e0cc9f3787b86f7f01522a6d906108ef9087908790339061206b565b60405180910390a161090e565b8061090681612140565b91505061080e565b5050505050565b6001600160a01b0381811660008181526065602052604080822060675491516361eb113d60e01b8152600481019490945291939192610100909104909116906361eb113d9060240160206040518083038186803b15801561097557600080fd5b505afa158015610989573d6000803e3d6000fd5b505050506040513d601f19601f820116820180604052508101906109ad9190611d72565b80156109b95750805484145b156109c85760019150506109ce565b60009150505b92915050565b306001600160a01b037f0000000000000000000000000000000000000000000000000000000000000000161415610a1d5760405162461bcd60e51b815260040161044790611f04565b7f00000000000000000000000000000000000000000000000000000000000000006001600160a01b0316610a666000805160206121ce833981519152546001600160a01b031690565b6001600160a01b031614610a8c5760405162461bcd60e51b815260040161044790611f77565b610a958161174e565b60408051600080825260208201909252610ab1918391906117a9565b50565b306001600160a01b037f0000000000000000000000000000000000000000000000000000000000000000161415610afd5760405162461bcd60e51b815260040161044790611f04565b7f00000000000000000000000000000000000000000000000000000000000000006001600160a01b0316610b466000805160206121ce833981519152546001600160a01b031690565b6001600160a01b031614610b6c5760405162461bcd60e51b815260040161044790611f77565b610b758261174e565b6107d4828260016117a9565b6000306001600160a01b037f00000000000000000000000000000000000000000000000000000000000000001614610c215760405162461bcd60e51b815260206004820152603860248201527f555550535570677261646561626c653a206d757374206e6f742062652063616c60448201527f6c6564207468726f7567682064656c656761746563616c6c00000000000000006064820152608401610447565b506000805160206121ce83398151915290565b6000828152606660205260409020805460ff16600114610c665760405162461bcd60e51b815260040161044790611f50565b6000805b600281101561090e576000818152600484016020526040902060018101549092506001600160a01b0316331415610d4c576001820154600160a01b900460ff16600214610ced5760405162461bcd60e51b81526020600482015260116024820152703832b73234b733903a379039b2b73232b960791b6044820152606401610447565b8351610d029060048401906020870190611bca565b5060018201805460ff60a01b1916600360a01b1790556040517fe0ab59164a8f2baa4da55647d6d1e2212792cb7ef019e0af743e20a324b45fb9906108ef9087908790339061206b565b80610d5681612140565b915050610c6a565b6000838152606660205260409020805460ff16600114610d905760405162461bcd60e51b815260040161044790611f50565b60028101546001600160a01b03163314610dec5760405162461bcd60e51b815260206004820152601a60248201527f73656e646572206973206e6f7420726f6f6d20696e73696465720000000000006044820152606401610447565b600083815260048201602052604090206001810154600160a01b900460ff16600314610e5a5760405162461bcd60e51b815260206004820152601860248201527f6e6f7420766572696669656420627920726563656976657200000000000000006044820152606401610447565b60058101805460ff191684151590811790915560018201805460ff60a01b1916600160a21b1790556040805187815260208101879052908101919091523360608201527f4cd6778b33945a75281a2e5711f8fba5a9c43b96c52fdd249b57f00bcda0984c9060800160405180910390a15050505050565b6040805160e08101825260008082526020820181905291810182905260608082018190526080820181905260a082015260c08101919091526000838152606660209081526040808320858452600401825291829020825160e08101845281546001600160a01b039081168252600183015490811693820193909352600160a01b90920460ff1692820192909252600282018054919291606084019190610f7690612105565b80601f0160208091040260200160405190810160405280929190818152602001828054610fa290612105565b8015610fef5780601f10610fc457610100808354040283529160200191610fef565b820191906000526020600020905b815481529060010190602001808311610fd257829003601f168201915b5050505050815260200160038201805461100890612105565b80601f016020809104026020016040519081016040528092919081815260200182805461103490612105565b80156110815780601f1061105657610100808354040283529160200191611081565b820191906000526020600020905b81548152906001019060200180831161106457829003601f168201915b5050505050815260200160048201805461109a90612105565b80601f01602080910402602001604051908101604052809291908181526020018280546110c690612105565b80156111135780601f106110e857610100808354040283529160200191611113565b820191906000526020600020905b8154815290600101906020018083116110f657829003601f168201915b50505091835250506005919091015460ff1615156020909101529392505050565b6000828152606660205260409020805460ff166001146111665760405162461bcd60e51b815260040161044790611f50565b6000805b60028110156112ea576000818152600484016020526040902060018101549092506001600160a01b03163314156112d8576001820154600160a01b900460ff166004146111ee5760405162461bcd60e51b81526020600482015260126024820152713832b73234b733903a379034b739b4b232b960711b6044820152606401610447565b8315611279576005830180546001919060009061120f90849060ff166120b4565b82546101009290920a60ff81810219909316918316021790915560058501546040805189815233602082015291909216918101919091527f5ecf0a4cc0aec3abfd64aa6854a180ca19126a8338419ebfde507cff2043dba3915060600160405180910390a16112be565b825460ff191660021783556040517ec527e1f7b8711eacd08792239e14bb23315b933fbc0603c39589a521abe3fe906112b59087815260200190565b60405180910390a15b60018201805460ff60a01b1916600560a01b1790556112ea565b806112e281612140565b91505061116a565b50600582015460ff1660021415611392576067546002830154604051631779b86d60e01b81526001600160a01b0391821660048201526101009092041690631779b86d90602401600060405180830381600087803b15801561134b57600080fd5b505af115801561135f573d6000803e3d6000fd5b50505060028301546001600160a01b031660009081526065602052604090206001840154905550815460ff191660031782555b50505050565b60008281526066602052604081206003018054839081106113bb576113bb612193565b6000918252602090912001546001600160a01b03169392505050565b6113e5606880546001019055565b6000606660006113f460685490565b81526020810191909152604001600020600181018390556002810180546001600160a01b0319163317905590507fc09a4a87f09b8cb8aaed58e7dec1c2328125ea753b21766e790321b19dd516f061144b60685490565b604080519182526020820185905233908201526060015b60405180910390a15050565b600054610100900460ff161580801561148e5750600054600160ff909116105b806114a85750303b1580156114a8575060005460ff166001145b61150b5760405162461bcd60e51b815260206004820152602e60248201527f496e697469616c697a61626c653a20636f6e747261637420697320616c72656160448201526d191e481a5b9a5d1a585b1a5e995960921b6064820152608401610447565b6000805460ff19166001179055801561152e576000805461ff0019166101001790555b611536611928565b6000829050806001600160a01b031663ba84fd696040518163ffffffff1660e01b815260040160206040518083038186803b15801561157457600080fd5b505afa158015611588573d6000803e3d6000fd5b505050506040513d601f19601f820116820180604052508101906115ac9190611d72565b6115b557600080fd5b6067805460ff196001600160a01b0390931661010002929092166001600160a81b031990921691909117600117905580156107d4576000805461ff0019169055604051600181527f7f26b83ff96e1f2b6a682f133852f6798a09c465da95921460cefb384740249890602001611462565b6000828152606660205260409020805460ff166001146116585760405162461bcd60e51b815260040161044790611f50565b6000805b600281101561090e576000818152600484016020526040902080549092506001600160a01b031633141561173c57600182810154600160a01b900460ff16146116dd5760405162461bcd60e51b81526020600482015260136024820152723832b73234b733903a37903932b1b2b4bb32b960691b6044820152606401610447565b83516116f29060038401906020870190611bca565b5060018201805460ff60a01b1916600160a11b1790556040517f5fdbeac5abea173de6693a315a473eaa70bc48bf7adc5db0ce6c4fd8b5d7e344906108ef9087908790339061206b565b8061174681612140565b91505061165c565b606754604051632104fb0560e21b81523360048201526101009091046001600160a01b031690638413ec149060240160006040518083038186803b15801561179557600080fd5b505afa15801561090e573d6000803e3d6000fd5b7f4910fdfa16fed3260ed0e7147f7cc6da11a60208b5b9406d12a635614ffd91435460ff16156117e1576117dc83611995565b505050565b826001600160a01b03166352d1902d6040518163ffffffff1660e01b815260040160206040518083038186803b15801561181a57600080fd5b505afa92505050801561184a575060408051601f3d908101601f1916820190925261184791810190611d8f565b60015b6118ad5760405162461bcd60e51b815260206004820152602e60248201527f45524331393637557067726164653a206e657720696d706c656d656e7461746960448201526d6f6e206973206e6f74205555505360901b6064820152608401610447565b6000805160206121ce833981519152811461191c5760405162461bcd60e51b815260206004820152602960248201527f45524331393637557067726164653a20756e737570706f727465642070726f786044820152681a58589b195555525160ba1b6064820152608401610447565b506117dc838383611a31565b600054610100900460ff166119935760405162461bcd60e51b815260206004820152602b60248201527f496e697469616c697a61626c653a20636f6e7472616374206973206e6f74206960448201526a6e697469616c697a696e6760a81b6064820152608401610447565b565b6001600160a01b0381163b611a025760405162461bcd60e51b815260206004820152602d60248201527f455243313936373a206e657720696d706c656d656e746174696f6e206973206e60448201526c1bdd08184818dbdb9d1c9858dd609a1b6064820152608401610447565b6000805160206121ce83398151915280546001600160a01b0319166001600160a01b0392909216919091179055565b611a3a83611a56565b600082511180611a475750805b156117dc576113928383611a96565b611a5f81611995565b6040516001600160a01b038216907fbc7cd75a20ee27fd9adebab32041f755214dbc6bffa90cc0225b39da2e5c2d3b90600090a250565b60606001600160a01b0383163b611afe5760405162461bcd60e51b815260206004820152602660248201527f416464726573733a2064656c65676174652063616c6c20746f206e6f6e2d636f6044820152651b9d1c9858dd60d21b6064820152608401610447565b600080846001600160a01b031684604051611b199190611ed5565b600060405180830381855af49150503d8060008114611b54576040519150601f19603f3d011682016040523d82523d6000602084013e611b59565b606091505b5091509150611b8182826040518060600160405280602781526020016121ee60279139611b8a565b95945050505050565b60608315611b99575081611bc3565b825115611ba95782518084602001fd5b8160405162461bcd60e51b81526004016104479190611ef1565b9392505050565b828054611bd690612105565b90600052602060002090601f016020900481019282611bf85760008555611c3e565b82601f10611c1157805160ff1916838001178555611c3e565b82800160010185558215611c3e579182015b82811115611c3e578251825591602001919060010190611c23565b50611c4a929150611c4e565b5090565b5b80821115611c4a5760008155600101611c4f565b600067ffffffffffffffff80841115611c7e57611c7e6121a9565b604051601f8501601f19908116603f01168101908282118183101715611ca657611ca66121a9565b81604052809350858152868686011115611cbf57600080fd5b858560208301376000602087830101525050509392505050565b80356001600160a01b0381168114611cf057600080fd5b919050565b600060208284031215611d0757600080fd5b611bc382611cd9565b60008060408385031215611d2357600080fd5b611d2c83611cd9565b9150602083013567ffffffffffffffff811115611d4857600080fd5b8301601f81018513611d5957600080fd5b611d6885823560208401611c63565b9150509250929050565b600060208284031215611d8457600080fd5b8151611bc3816121bf565b600060208284031215611da157600080fd5b5051919050565b600060208284031215611dba57600080fd5b5035919050565b60008060408385031215611dd457600080fd5b82359150611de460208401611cd9565b90509250929050565b60008060408385031215611e0057600080fd5b823591506020830135611e12816121bf565b809150509250929050565b60008060408385031215611e3057600080fd5b82359150602083013567ffffffffffffffff811115611d4857600080fd5b60008060408385031215611e6157600080fd5b50508035926020909101359150565b600080600060608486031215611e8557600080fd5b83359250602084013591506040840135611e9e816121bf565b809150509250925092565b60008151808452611ec18160208601602086016120d9565b601f01601f19169290920160200192915050565b60008251611ee78184602087016120d9565b9190910192915050565b602081526000611bc36020830184611ea9565b6020808252602c908201527f46756e6374696f6e206d7573742062652063616c6c6564207468726f7567682060408201526b19195b1959d85d1958d85b1b60a21b606082015260800190565b6020808252600d908201526c3937b7b69034b990333ab6361760991b604082015260600190565b6020808252602c908201527f46756e6374696f6e206d7573742062652063616c6c6564207468726f7567682060408201526b6163746976652070726f787960a01b606082015260800190565b602080825282516001600160a01b0390811683830152908301511660408083019190915282015160ff8116606083015260009050606083015160e06080840152612011610100840182611ea9565b90506080840151601f19808584030160a086015261202f8383611ea9565b925060a08601519150808584030160c08601525061204d8282611ea9565b91505060c084015161206360e085018215159052565b509392505050565b8381526060602082015260006120846060830185611ea9565b905060018060a01b0383166040830152949350505050565b600082198211156120af576120af61217d565b500190565b600060ff821660ff84168060ff038211156120d1576120d161217d565b019392505050565b60005b838110156120f45781810151838201526020016120dc565b838111156113925750506000910152565b600181811c9082168061211957607f821691505b6020821081141561213a57634e487b7160e01b600052602260045260246000fd5b50919050565b60006000198214156121545761215461217d565b5060010190565b60008261217857634e487b7160e01b600052601260045260246000fd5b500690565b634e487b7160e01b600052601160045260246000fd5b634e487b7160e01b600052603260045260246000fd5b634e487b7160e01b600052604160045260246000fd5b8015158114610ab157600080fdfe360894a13ba1a3210667c828492db98dca3e2076cc3735a920a3ca505d382bbc416464726573733a206c6f772d6c6576656c2064656c65676174652063616c6c206661696c6564a26469706673582212205f97f5d8cea14a0ee95c179365a0602e08685c8b071f726e419815b3e388d1e464736f6c63430008060033",
  "linkReferences": {},
  "deployedLinkReferences": {}
}