{
  "_format": "hh-sol-artifact-1",
  "contractName": "Soulbound",
  "sourceName": "contracts/soulbond/Soulbound.sol",
  "abi": [
    {
      "inputs": [],
      "stateMutability": "nonpayable",
      "type": "constructor"
    },
    {
      "anonymous": false,
      "inputs": [
        {
          "indexed": false,
          "internalType": "address",
          "name": "previousAdmin",
          "type": "address"
        },
        {
          "indexed": false,
          "internalType": "address",
          "name": "newAdmin",
          "type": "address"
        }
      ],
      "name": "AdminChanged",
      "type": "event"
    },
    {
      "anonymous": false,
      "inputs": [
        {
          "indexed": true,
          "internalType": "address",
          "name": "owner",
          "type": "address"
        },
        {
          "indexed": true,
          "internalType": "address",
          "name": "approved",
          "type": "address"
        },
        {
          "indexed": true,
          "internalType": "uint256",
          "name": "tokenId",
          "type": "uint256"
        }
      ],
      "name": "Approval",
      "type": "event"
    },
    {
      "anonymous": false,
      "inputs": [
        {
          "indexed": true,
          "internalType": "address",
          "name": "owner",
          "type": "address"
        },
        {
          "indexed": true,
          "internalType": "address",
          "name": "operator",
          "type": "address"
        },
        {
          "indexed": false,
          "internalType": "bool",
          "name": "approved",
          "type": "bool"
        }
      ],
      "name": "ApprovalForAll",
      "type": "event"
    },
    {
      "anonymous": false,
      "inputs": [
        {
          "indexed": true,
          "internalType": "address",
          "name": "beacon",
          "type": "address"
        }
      ],
      "name": "BeaconUpgraded",
      "type": "event"
    },
    {
      "anonymous": false,
      "inputs": [
        {
          "indexed": false,
          "internalType": "uint8",
          "name": "version",
          "type": "uint8"
        }
      ],
      "name": "Initialized",
      "type": "event"
    },
    {
      "anonymous": false,
      "inputs": [
        {
          "indexed": true,
          "internalType": "address",
          "name": "from",
          "type": "address"
        },
        {
          "indexed": true,
          "internalType": "address",
          "name": "to",
          "type": "address"
        },
        {
          "indexed": true,
          "internalType": "uint256",
          "name": "tokenId",
          "type": "uint256"
        }
      ],
      "name": "Transfer",
      "type": "event"
    },
    {
      "anonymous": false,
      "inputs": [
        {
          "indexed": true,
          "internalType": "address",
          "name": "implementation",
          "type": "address"
        }
      ],
      "name": "Upgraded",
      "type": "event"
    },
    {
      "inputs": [],
      "name": "accessRestriction",
      "outputs": [
        {
          "internalType": "contract IAccessRestriction",
          "name": "",
          "type": "address"
        }
      ],
      "stateMutability": "view",
      "type": "function"
    },
    {
      "inputs": [
        {
          "internalType": "address",
          "name": "to",
          "type": "address"
        },
        {
          "internalType": "uint256",
          "name": "tokenId",
          "type": "uint256"
        }
      ],
      "name": "approve",
      "outputs": [],
      "stateMutability": "nonpayable",
      "type": "function"
    },
    {
      "inputs": [
        {
          "internalType": "uint256",
          "name": "",
          "type": "uint256"
        }
      ],
      "name": "attributes",
      "outputs": [
        {
          "internalType": "uint256",
          "name": "courtId",
          "type": "uint256"
        },
        {
          "internalType": "enum AttributeLib.TypeEnums",
          "name": "status",
          "type": "uint8"
        }
      ],
      "stateMutability": "view",
      "type": "function"
    },
    {
      "inputs": [
        {
          "internalType": "address",
          "name": "owner",
          "type": "address"
        }
      ],
      "name": "balanceOf",
      "outputs": [
        {
          "internalType": "uint256",
          "name": "",
          "type": "uint256"
        }
      ],
      "stateMutability": "view",
      "type": "function"
    },
    {
      "inputs": [],
      "name": "baseURI",
      "outputs": [
        {
          "internalType": "string",
          "name": "",
          "type": "string"
        }
      ],
      "stateMutability": "view",
      "type": "function"
    },
    {
      "inputs": [
        {
          "internalType": "uint256",
          "name": "_tokenId",
          "type": "uint256"
        }
      ],
      "name": "exists",
      "outputs": [
        {
          "internalType": "bool",
          "name": "",
          "type": "bool"
        }
      ],
      "stateMutability": "view",
      "type": "function"
    },
    {
      "inputs": [
        {
          "internalType": "uint256",
          "name": "tokenId",
          "type": "uint256"
        }
      ],
      "name": "getApproved",
      "outputs": [
        {
          "internalType": "address",
          "name": "",
          "type": "address"
        }
      ],
      "stateMutability": "view",
      "type": "function"
    },
    {
      "inputs": [
        {
          "internalType": "address",
          "name": "_accessRestrictionAddress",
          "type": "address"
        },
        {
          "internalType": "string",
          "name": "baseURI_",
          "type": "string"
        }
      ],
      "name": "initialize",
      "outputs": [],
      "stateMutability": "nonpayable",
      "type": "function"
    },
    {
      "inputs": [
        {
          "internalType": "address",
          "name": "owner",
          "type": "address"
        },
        {
          "internalType": "address",
          "name": "operator",
          "type": "address"
        }
      ],
      "name": "isApprovedForAll",
      "outputs": [
        {
          "internalType": "bool",
          "name": "",
          "type": "bool"
        }
      ],
      "stateMutability": "view",
      "type": "function"
    },
    {
      "inputs": [],
      "name": "isSoulbound",
      "outputs": [
        {
          "internalType": "bool",
          "name": "",
          "type": "bool"
        }
      ],
      "stateMutability": "view",
      "type": "function"
    },
    {
      "inputs": [
        {
          "components": [
            {
              "internalType": "uint256",
              "name": "courtId",
              "type": "uint256"
            },
            {
              "internalType": "enum AttributeLib.TypeEnums",
              "name": "status",
              "type": "uint8"
            }
          ],
          "internalType": "struct AttributeLib.Attribute",
          "name": "_attr",
          "type": "tuple"
        },
        {
          "internalType": "address",
          "name": "_to",
          "type": "address"
        }
      ],
      "name": "mint",
      "outputs": [],
      "stateMutability": "nonpayable",
      "type": "function"
    },
    {
      "inputs": [],
      "name": "name",
      "outputs": [
        {
          "internalType": "string",
          "name": "",
          "type": "string"
        }
      ],
      "stateMutability": "view",
      "type": "function"
    },
    {
      "inputs": [
        {
          "internalType": "uint256",
          "name": "tokenId",
          "type": "uint256"
        }
      ],
      "name": "ownerOf",
      "outputs": [
        {
          "internalType": "address",
          "name": "",
          "type": "address"
        }
      ],
      "stateMutability": "view",
      "type": "function"
    },
    {
      "inputs": [],
      "name": "proxiableUUID",
      "outputs": [
        {
          "internalType": "bytes32",
          "name": "",
          "type": "bytes32"
        }
      ],
      "stateMutability": "view",
      "type": "function"
    },
    {
      "inputs": [
        {
          "internalType": "address",
          "name": "from",
          "type": "address"
        },
        {
          "internalType": "address",
          "name": "to",
          "type": "address"
        },
        {
          "internalType": "uint256",
          "name": "tokenId",
          "type": "uint256"
        }
      ],
      "name": "safeTransferFrom",
      "outputs": [],
      "stateMutability": "nonpayable",
      "type": "function"
    },
    {
      "inputs": [
        {
          "internalType": "address",
          "name": "from",
          "type": "address"
        },
        {
          "internalType": "address",
          "name": "to",
          "type": "address"
        },
        {
          "internalType": "uint256",
          "name": "tokenId",
          "type": "uint256"
        },
        {
          "internalType": "bytes",
          "name": "data",
          "type": "bytes"
        }
      ],
      "name": "safeTransferFrom",
      "outputs": [],
      "stateMutability": "nonpayable",
      "type": "function"
    },
    {
      "inputs": [
        {
          "internalType": "address",
          "name": "operator",
          "type": "address"
        },
        {
          "internalType": "bool",
          "name": "approved",
          "type": "bool"
        }
      ],
      "name": "setApprovalForAll",
      "outputs": [],
      "stateMutability": "nonpayable",
      "type": "function"
    },
    {
      "inputs": [
        {
          "internalType": "string",
          "name": "baseURI_",
          "type": "string"
        }
      ],
      "name": "setBaseURI",
      "outputs": [],
      "stateMutability": "nonpayable",
      "type": "function"
    },
    {
      "inputs": [
        {
          "internalType": "bytes4",
          "name": "interfaceId",
          "type": "bytes4"
        }
      ],
      "name": "supportsInterface",
      "outputs": [
        {
          "internalType": "bool",
          "name": "",
          "type": "bool"
        }
      ],
      "stateMutability": "view",
      "type": "function"
    },
    {
      "inputs": [],
      "name": "symbol",
      "outputs": [
        {
          "internalType": "string",
          "name": "",
          "type": "string"
        }
      ],
      "stateMutability": "view",
      "type": "function"
    },
    {
      "inputs": [
        {
          "internalType": "uint256",
          "name": "tokenId",
          "type": "uint256"
        }
      ],
      "name": "tokenURI",
      "outputs": [
        {
          "internalType": "string",
          "name": "",
          "type": "string"
        }
      ],
      "stateMutability": "view",
      "type": "function"
    },
    {
      "inputs": [
        {
          "internalType": "address",
          "name": "from",
          "type": "address"
        },
        {
          "internalType": "address",
          "name": "to",
          "type": "address"
        },
        {
          "internalType": "uint256",
          "name": "tokenId",
          "type": "uint256"
        }
      ],
      "name": "transferFrom",
      "outputs": [],
      "stateMutability": "nonpayable",
      "type": "function"
    },
    {
      "inputs": [
        {
          "internalType": "address",
          "name": "newImplementation",
          "type": "address"
        }
      ],
      "name": "upgradeTo",
      "outputs": [],
      "stateMutability": "nonpayable",
      "type": "function"
    },
    {
      "inputs": [
        {
          "internalType": "address",
          "name": "newImplementation",
          "type": "address"
        },
        {
          "internalType": "bytes",
          "name": "data",
          "type": "bytes"
        }
      ],
      "name": "upgradeToAndCall",
      "outputs": [],
      "stateMutability": "payable",
      "type": "function"
    }
  ],
  "bytecode": "0x60a06040523060601b6080523480156200001857600080fd5b506200002362000029565b620000eb565b600054610100900460ff1615620000965760405162461bcd60e51b815260206004820152602760248201527f496e697469616c697a61626c653a20636f6e747261637420697320696e697469604482015266616c697a696e6760c81b606482015260840160405180910390fd5b60005460ff9081161015620000e9576000805460ff191660ff9081179091556040519081527f7f26b83ff96e1f2b6a682f133852f6798a09c465da95921460cefb38474024989060200160405180910390a15b565b60805160601c612529620001266000396000818161070e0152818161074e015281816108090152818161084901526108fb01526125296000f3fe60806040526004361061014b5760003560e01c80636c0360eb116100b6578063c87b56dd1161006f578063c87b56dd146103a1578063d05dcc6a146103c1578063d6762c4a14610409578063e985e9c514610429578063f399e22e14610472578063f7eca6d01461049257600080fd5b80636c0360eb146102f757806370a082311461030c57806390aa3bf21461032c57806395d89b411461034c578063a22cb46514610361578063b88d4fde1461038157600080fd5b806342842e0e1161010857806342842e0e146102415780634f1ef286146102615780634f558e791461027457806352d1902d1461029457806355f804b3146102b75780636352211e146102d757600080fd5b806301ffc9a71461015057806306fdde0314610185578063081812fc146101a7578063095ea7b3146101df57806323b872dd146102015780633659cfe614610221575b600080fd5b34801561015c57600080fd5b5061017061016b366004611fbe565b6104ac565b60405190151581526020015b60405180910390f35b34801561019157600080fd5b5061019a6104fe565b60405161017c9190612179565b3480156101b357600080fd5b506101c76101c23660046120ac565b610590565b6040516001600160a01b03909116815260200161017c565b3480156101eb57600080fd5b506101ff6101fa366004611f5e565b6105b7565b005b34801561020d57600080fd5b506101ff61021c366004611de2565b6106d2565b34801561022d57600080fd5b506101ff61023c366004611d94565b610703565b34801561024d57600080fd5b506101ff61025c366004611de2565b6107e3565b6101ff61026f366004611ebd565b6107fe565b34801561028057600080fd5b5061017061028f3660046120ac565b6108cf565b3480156102a057600080fd5b506102a96108ee565b60405190815260200161017c565b3480156102c357600080fd5b506101ff6102d2366004611ff8565b6109a1565b3480156102e357600080fd5b506101c76102f23660046120ac565b610a0b565b34801561030357600080fd5b5061019a610a6b565b34801561031857600080fd5b506102a9610327366004611d94565b610af9565b34801561033857600080fd5b506101ff61034736600461203a565b610b7f565b34801561035857600080fd5b5061019a610c42565b34801561036d57600080fd5b506101ff61037c366004611e86565b610c51565b34801561038d57600080fd5b506101ff61039c366004611e1e565b610c5c565b3480156103ad57600080fd5b5061019a6103bc3660046120ac565b610c94565b3480156103cd57600080fd5b506103fb6103dc3660046120ac565b60ff602081905260009182526040909120805460019091015490911682565b60405161017c92919061230f565b34801561041557600080fd5b5060fd546101c7906001600160a01b031681565b34801561043557600080fd5b50610170610444366004611daf565b6001600160a01b039182166000908152606a6020908152604080832093909416825291909152205460ff1690565b34801561047e57600080fd5b506101ff61048d366004611f0b565b610cfb565b34801561049e57600080fd5b5060fb546101709060ff1681565b60006001600160e01b031982166380ac58cd60e01b14806104dd57506001600160e01b03198216635b5e139f60e01b145b806104f857506301ffc9a760e01b6001600160e01b03198316145b92915050565b60606065805461050d906123b0565b80601f0160208091040260200160405190810160405280929190818152602001828054610539906123b0565b80156105865780601f1061055b57610100808354040283529160200191610586565b820191906000526020600020905b81548152906001019060200180831161056957829003601f168201915b5050505050905090565b600061059b82610f1c565b506000908152606960205260409020546001600160a01b031690565b60006105c282610a0b565b9050806001600160a01b0316836001600160a01b031614156106355760405162461bcd60e51b815260206004820152602160248201527f4552433732313a20617070726f76616c20746f2063757272656e74206f776e656044820152603960f91b60648201526084015b60405180910390fd5b336001600160a01b038216148061065157506106518133610444565b6106c35760405162461bcd60e51b815260206004820152603e60248201527f4552433732313a20617070726f76652063616c6c6572206973206e6f7420746f60448201527f6b656e206f776e6572206e6f7220617070726f76656420666f7220616c6c0000606482015260840161062c565b6106cd8383610f7b565b505050565b6106dc3382610fe9565b6106f85760405162461bcd60e51b815260040161062c906122c1565b6106cd838383611068565b306001600160a01b037f000000000000000000000000000000000000000000000000000000000000000016141561074c5760405162461bcd60e51b815260040161062c906121de565b7f00000000000000000000000000000000000000000000000000000000000000006001600160a01b03166107956000805160206124ad833981519152546001600160a01b031690565b6001600160a01b0316146107bb5760405162461bcd60e51b815260040161062c9061222a565b6107c48161120f565b604080516000808252602082019092526107e09183919061126d565b50565b6106cd83838360405180602001604052806000815250610c5c565b306001600160a01b037f00000000000000000000000000000000000000000000000000000000000000001614156108475760405162461bcd60e51b815260040161062c906121de565b7f00000000000000000000000000000000000000000000000000000000000000006001600160a01b03166108906000805160206124ad833981519152546001600160a01b031690565b6001600160a01b0316146108b65760405162461bcd60e51b815260040161062c9061222a565b6108bf8261120f565b6108cb8282600161126d565b5050565b6000818152606760205260408120546001600160a01b031615156104f8565b6000306001600160a01b037f0000000000000000000000000000000000000000000000000000000000000000161461098e5760405162461bcd60e51b815260206004820152603860248201527f555550535570677261646561626c653a206d757374206e6f742062652063616c60448201527f6c6564207468726f7567682064656c656761746563616c6c0000000000000000606482015260840161062c565b506000805160206124ad83398151915290565b60fd54604051632104fb0560e21b81523360048201526001600160a01b0390911690638413ec149060240160006040518083038186803b1580156109e457600080fd5b505afa1580156109f8573d6000803e3d6000fd5b506106cd925060fc915084905083611b95565b6000818152606760205260408120546001600160a01b0316806104f85760405162461bcd60e51b8152602060048201526018602482015277115490cdcc8c4e881a5b9d985b1a59081d1bdad95b88125160421b604482015260640161062c565b60fc8054610a78906123b0565b80601f0160208091040260200160405190810160405280929190818152602001828054610aa4906123b0565b8015610af15780601f10610ac657610100808354040283529160200191610af1565b820191906000526020600020905b815481529060010190602001808311610ad457829003601f168201915b505050505081565b60006001600160a01b038216610b635760405162461bcd60e51b815260206004820152602960248201527f4552433732313a2061646472657373207a65726f206973206e6f7420612076616044820152683634b21037bbb732b960b91b606482015260840161062c565b506001600160a01b031660009081526068602052604090205490565b60fd54604051634e47700b60e01b81523360048201526001600160a01b0390911690634e47700b9060240160006040518083038186803b158015610bc257600080fd5b505afa158015610bd6573d6000803e3d6000fd5b505050506000610be560fe5490565b9050610bf182826113e7565b600081815260ff602090815260409091208451815590840151600180830180548794939260ff19909116908381811115610c2d57610c2d612446565b02179055505060fe8054600101905550505050565b60606066805461050d906123b0565b6108cb338383611535565b610c663383610fe9565b610c825760405162461bcd60e51b815260040161062c906122c1565b610c8e84848484611604565b50505050565b6060610c9f82610f1c565b6000610ca9611637565b90506000815111610cc95760405180602001604052806000815250610cf4565b80610cd384611646565b604051602001610ce492919061210d565b6040516020818303038152906040525b9392505050565b600054610100900460ff1615808015610d1b5750600054600160ff909116105b80610d355750303b158015610d35575060005460ff166001145b610d985760405162461bcd60e51b815260206004820152602e60248201527f496e697469616c697a61626c653a20636f6e747261637420697320616c72656160448201526d191e481a5b9a5d1a585b1a5e995960921b606482015260840161062c565b6000805460ff191660011790558015610dbb576000805461ff0019166101001790555b60fb805460ff19166001179055610dd0611744565b610e256040518060400160405280601281526020017114dbdd5b189bdd5b990818dbdb9d1c9858dd60721b8152506040518060400160405280600981526020016814dbdd5b109bdd5b9960ba1b81525061176d565b610e3160fc8484611b95565b506000849050806001600160a01b031663ba84fd696040518163ffffffff1660e01b815260040160206040518083038186803b158015610e7057600080fd5b505afa158015610e84573d6000803e3d6000fd5b505050506040513d601f19601f82011682018060405250810190610ea89190611f88565b610eb157600080fd5b60fd80546001600160a01b0319166001600160a01b03929092169190911790558015610c8e576000805461ff0019169055604051600181527f7f26b83ff96e1f2b6a682f133852f6798a09c465da95921460cefb38474024989060200160405180910390a150505050565b6000818152606760205260409020546001600160a01b03166107e05760405162461bcd60e51b8152602060048201526018602482015277115490cdcc8c4e881a5b9d985b1a59081d1bdad95b88125160421b604482015260640161062c565b600081815260696020526040902080546001600160a01b0319166001600160a01b0384169081179091558190610fb082610a0b565b6001600160a01b03167f8c5be1e5ebec7d5bd14f71427d1e84f3dd0314c0f7b2291e5b200ac8c7c3b92560405160405180910390a45050565b600080610ff583610a0b565b9050806001600160a01b0316846001600160a01b0316148061103c57506001600160a01b038082166000908152606a602090815260408083209388168352929052205460ff165b806110605750836001600160a01b031661105584610590565b6001600160a01b0316145b949350505050565b826001600160a01b031661107b82610a0b565b6001600160a01b0316146110df5760405162461bcd60e51b815260206004820152602560248201527f4552433732313a207472616e736665722066726f6d20696e636f72726563742060448201526437bbb732b960d91b606482015260840161062c565b6001600160a01b0382166111415760405162461bcd60e51b8152602060048201526024808201527f4552433732313a207472616e7366657220746f20746865207a65726f206164646044820152637265737360e01b606482015260840161062c565b61114c83838361179e565b611157600082610f7b565b6001600160a01b038316600090815260686020526040812080546001929061118090849061236d565b90915550506001600160a01b03821660009081526068602052604081208054600192906111ae908490612341565b909155505060008181526067602052604080822080546001600160a01b0319166001600160a01b0386811691821790925591518493918716917fddf252ad1be2c89b69c2b068fc378daa952ba7f163c4a11628f55a4df523b3ef91a4505050565b60fd54604051632104fb0560e21b81523360048201526001600160a01b0390911690638413ec149060240160006040518083038186803b15801561125257600080fd5b505afa158015611266573d6000803e3d6000fd5b5050505050565b7f4910fdfa16fed3260ed0e7147f7cc6da11a60208b5b9406d12a635614ffd91435460ff16156112a0576106cd8361180c565b826001600160a01b03166352d1902d6040518163ffffffff1660e01b815260040160206040518083038186803b1580156112d957600080fd5b505afa925050508015611309575060408051601f3d908101601f1916820190925261130691810190611fa5565b60015b61136c5760405162461bcd60e51b815260206004820152602e60248201527f45524331393637557067726164653a206e657720696d706c656d656e7461746960448201526d6f6e206973206e6f74205555505360901b606482015260840161062c565b6000805160206124ad83398151915281146113db5760405162461bcd60e51b815260206004820152602960248201527f45524331393637557067726164653a20756e737570706f727465642070726f786044820152681a58589b195555525160ba1b606482015260840161062c565b506106cd8383836118a8565b6001600160a01b03821661143d5760405162461bcd60e51b815260206004820181905260248201527f4552433732313a206d696e7420746f20746865207a65726f2061646472657373604482015260640161062c565b6000818152606760205260409020546001600160a01b0316156114a25760405162461bcd60e51b815260206004820152601c60248201527f4552433732313a20746f6b656e20616c7265616479206d696e74656400000000604482015260640161062c565b6114ae6000838361179e565b6001600160a01b03821660009081526068602052604081208054600192906114d7908490612341565b909155505060008181526067602052604080822080546001600160a01b0319166001600160a01b03861690811790915590518392907fddf252ad1be2c89b69c2b068fc378daa952ba7f163c4a11628f55a4df523b3ef908290a45050565b816001600160a01b0316836001600160a01b031614156115975760405162461bcd60e51b815260206004820152601960248201527f4552433732313a20617070726f766520746f2063616c6c657200000000000000604482015260640161062c565b6001600160a01b038381166000818152606a6020908152604080832094871680845294825291829020805460ff191686151590811790915591519182527f17307eab39ab6107e8899845ad3d59bd9653f200f220920489ca2b5937696c31910160405180910390a3505050565b61160f848484611068565b61161b848484846118cd565b610c8e5760405162461bcd60e51b815260040161062c9061218c565b606060fc805461050d906123b0565b60608161166a5750506040805180820190915260018152600360fc1b602082015290565b8160005b8115611694578061167e816123eb565b915061168d9050600a83612359565b915061166e565b60008167ffffffffffffffff8111156116af576116af612472565b6040519080825280601f01601f1916602001820160405280156116d9576020820181803683370190505b5090505b8415611060576116ee60018361236d565b91506116fb600a86612406565b611706906030612341565b60f81b81838151811061171b5761171b61245c565b60200101906001600160f81b031916908160001a90535061173d600a86612359565b94506116dd565b600054610100900460ff1661176b5760405162461bcd60e51b815260040161062c90612276565b565b600054610100900460ff166117945760405162461bcd60e51b815260040161062c90612276565b6108cb82826119da565b6001600160a01b038316156106cd5760405162461bcd60e51b815260206004820152602e60248201527f4e6f6e5472616e736665727261626c65455243373231546f6b656e3a206e6f6e60448201526d207472616e736665727261626c6560901b606482015260840161062c565b6001600160a01b0381163b6118795760405162461bcd60e51b815260206004820152602d60248201527f455243313936373a206e657720696d706c656d656e746174696f6e206973206e60448201526c1bdd08184818dbdb9d1c9858dd609a1b606482015260840161062c565b6000805160206124ad83398151915280546001600160a01b0319166001600160a01b0392909216919091179055565b6118b183611a28565b6000825111806118be5750805b156106cd57610c8e8383611a68565b60006001600160a01b0384163b156119cf57604051630a85bd0160e11b81526001600160a01b0385169063150b7a029061191190339089908890889060040161213c565b602060405180830381600087803b15801561192b57600080fd5b505af192505050801561195b575060408051601f3d908101601f1916820190925261195891810190611fdb565b60015b6119b5573d808015611989576040519150601f19603f3d011682016040523d82523d6000602084013e61198e565b606091505b5080516119ad5760405162461bcd60e51b815260040161062c9061218c565b805181602001fd5b6001600160e01b031916630a85bd0160e11b149050611060565b506001949350505050565b600054610100900460ff16611a015760405162461bcd60e51b815260040161062c90612276565b8151611a14906065906020850190611c19565b5080516106cd906066906020840190611c19565b611a318161180c565b6040516001600160a01b038216907fbc7cd75a20ee27fd9adebab32041f755214dbc6bffa90cc0225b39da2e5c2d3b90600090a250565b60606001600160a01b0383163b611ad05760405162461bcd60e51b815260206004820152602660248201527f416464726573733a2064656c65676174652063616c6c20746f206e6f6e2d636f6044820152651b9d1c9858dd60d21b606482015260840161062c565b600080846001600160a01b031684604051611aeb91906120f1565b600060405180830381855af49150503d8060008114611b26576040519150601f19603f3d011682016040523d82523d6000602084013e611b2b565b606091505b5091509150611b5382826040518060600160405280602781526020016124cd60279139611b5c565b95945050505050565b60608315611b6b575081610cf4565b825115611b7b5782518084602001fd5b8160405162461bcd60e51b815260040161062c9190612179565b828054611ba1906123b0565b90600052602060002090601f016020900481019282611bc35760008555611c09565b82601f10611bdc5782800160ff19823516178555611c09565b82800160010185558215611c09579182015b82811115611c09578235825591602001919060010190611bee565b50611c15929150611c8d565b5090565b828054611c25906123b0565b90600052602060002090601f016020900481019282611c475760008555611c09565b82601f10611c6057805160ff1916838001178555611c09565b82800160010185558215611c09579182015b82811115611c09578251825591602001919060010190611c72565b5b80821115611c155760008155600101611c8e565b80356001600160a01b0381168114611cb957600080fd5b919050565b600082601f830112611ccf57600080fd5b813567ffffffffffffffff80821115611cea57611cea612472565b604051601f8301601f19908116603f01168101908282118183101715611d1257611d12612472565b81604052838152866020858801011115611d2b57600080fd5b836020870160208301376000602085830101528094505050505092915050565b60008083601f840112611d5d57600080fd5b50813567ffffffffffffffff811115611d7557600080fd5b602083019150836020828501011115611d8d57600080fd5b9250929050565b600060208284031215611da657600080fd5b610cf482611ca2565b60008060408385031215611dc257600080fd5b611dcb83611ca2565b9150611dd960208401611ca2565b90509250929050565b600080600060608486031215611df757600080fd5b611e0084611ca2565b9250611e0e60208501611ca2565b9150604084013590509250925092565b60008060008060808587031215611e3457600080fd5b611e3d85611ca2565b9350611e4b60208601611ca2565b925060408501359150606085013567ffffffffffffffff811115611e6e57600080fd5b611e7a87828801611cbe565b91505092959194509250565b60008060408385031215611e9957600080fd5b611ea283611ca2565b91506020830135611eb281612488565b809150509250929050565b60008060408385031215611ed057600080fd5b611ed983611ca2565b9150602083013567ffffffffffffffff811115611ef557600080fd5b611f0185828601611cbe565b9150509250929050565b600080600060408486031215611f2057600080fd5b611f2984611ca2565b9250602084013567ffffffffffffffff811115611f4557600080fd5b611f5186828701611d4b565b9497909650939450505050565b60008060408385031215611f7157600080fd5b611f7a83611ca2565b946020939093013593505050565b600060208284031215611f9a57600080fd5b8151610cf481612488565b600060208284031215611fb757600080fd5b5051919050565b600060208284031215611fd057600080fd5b8135610cf481612496565b600060208284031215611fed57600080fd5b8151610cf481612496565b6000806020838503121561200b57600080fd5b823567ffffffffffffffff81111561202257600080fd5b61202e85828601611d4b565b90969095509350505050565b600080828403606081121561204e57600080fd5b604081121561205c57600080fd5b506040516040810181811067ffffffffffffffff8211171561208057612080612472565b6040528335815260208401356002811061209957600080fd5b60208201529150611dd960408401611ca2565b6000602082840312156120be57600080fd5b5035919050565b600081518084526120dd816020860160208601612384565b601f01601f19169290920160200192915050565b60008251612103818460208701612384565b9190910192915050565b6000835161211f818460208801612384565b835190830190612133818360208801612384565b01949350505050565b6001600160a01b038581168252841660208201526040810183905260806060820181905260009061216f908301846120c5565b9695505050505050565b602081526000610cf460208301846120c5565b60208082526032908201527f4552433732313a207472616e7366657220746f206e6f6e20455243373231526560408201527131b2b4bb32b91034b6b83632b6b2b73a32b960711b606082015260800190565b6020808252602c908201527f46756e6374696f6e206d7573742062652063616c6c6564207468726f7567682060408201526b19195b1959d85d1958d85b1b60a21b606082015260800190565b6020808252602c908201527f46756e6374696f6e206d7573742062652063616c6c6564207468726f7567682060408201526b6163746976652070726f787960a01b606082015260800190565b6020808252602b908201527f496e697469616c697a61626c653a20636f6e7472616374206973206e6f74206960408201526a6e697469616c697a696e6760a81b606082015260800190565b6020808252602e908201527f4552433732313a2063616c6c6572206973206e6f7420746f6b656e206f776e6560408201526d1c881b9bdc88185c1c1c9bdd995960921b606082015260800190565b828152604081016002831061233457634e487b7160e01b600052602160045260246000fd5b8260208301529392505050565b600082198211156123545761235461241a565b500190565b60008261236857612368612430565b500490565b60008282101561237f5761237f61241a565b500390565b60005b8381101561239f578181015183820152602001612387565b83811115610c8e5750506000910152565b600181811c908216806123c457607f821691505b602082108114156123e557634e487b7160e01b600052602260045260246000fd5b50919050565b60006000198214156123ff576123ff61241a565b5060010190565b60008261241557612415612430565b500690565b634e487b7160e01b600052601160045260246000fd5b634e487b7160e01b600052601260045260246000fd5b634e487b7160e01b600052602160045260246000fd5b634e487b7160e01b600052603260045260246000fd5b634e487b7160e01b600052604160045260246000fd5b80151581146107e057600080fd5b6001600160e01b0319811681146107e057600080fdfe360894a13ba1a3210667c828492db98dca3e2076cc3735a920a3ca505d382bbc416464726573733a206c6f772d6c6576656c2064656c65676174652063616c6c206661696c6564a2646970667358221220cdd2967de5ba1348365967671b1ea659fa1fbf0e436125d32e9fb1809d6e6e5564736f6c63430008060033",
  "linkReferences": {},
  "deployedLinkReferences": {}
}